:100000000C9463000C948B000C948B000C940B04E8
:100010000C940B040C940B040C948B000C948B002C
:100020000C948B000C948B000C948B000C948B0024
:100030000C948B000C948B000C948B000C948B0014
:100040000C94EB050C948B000C94D9030C94B30323
:100050000C948B000C948B000C948B000C948B00F4
:100060000C948B000C948B000000000024002700EF
:100070002A0000000008000201000003040700003D
:1000800000000000000000000000230026002900FE
:1000900000000000250028002B00040404040404D0
:1000A0000404020202020202030303030303010227
:1000B00004081020408001020408102001020408F6
:1000C0001020640B430B11241FBECFEFD8E0DEBF1E
:1000D000CDBF22E0A8ECB1E001C01D92A03EB20766
:1000E000E1F711E0A0E0B1E0E6EFFDE102C005902C
:1000F0000D92A83CB107D9F710E0C2E6D0E004C0E9
:100100002197FE010E94E30CC136D107C9F70E9476
:1001100035060C94EE0E0C940000CF92DF92EF9215
:10012000FF920F931F93CF93DF936C017A018B01A2
:10013000C0E0D0E0CE15DF0581F0D8016D918D01D2
:10014000D601ED91FC910190F081E02DC601099559
:10015000892B11F02196EECF7E01C701DF91CF915F
:100160001F910F91FF90EF90DF90CF900895FC01C9
:10017000538D448D252F30E0842F90E0821B930B0C
:10018000541710F0CF96089501970895FC01918DB2
:10019000828D981761F0828DDF01A80FB11D5D96E9
:1001A0008C91928D9F5F9F73928F90E008958FEF57
:1001B0009FEF0895FC01918D828D981731F0828D0B
:1001C000E80FF11D858D90E008958FEF9FEF089562
:1001D000FC01918D228D892F90E0805C9F4F821BC6
:1001E00091098F739927089581E192E00E94E800B8
:1001F00021E0892B09F420E0822F0895FC01848DF1
:10020000DF01A80FB11DA35ABF4F2C91848D90E040
:1002100001968F739927848FA689B7892C93A0891B
:10022000B1898C91837080648C93938D848D9813A5
:1002300006C00288F389E02D80818F7D8083089538
:10024000EF92FF920F931F93CF93DF93EC0181E026
:10025000888F9B8D8C8D981305C0E889F9898081E2
:1002600085FD26C0F62E0B8D10E00F5F1F4F0F731C
:100270001127E02E8C8DE8120CC00FB607FCFACFC8
:10028000E889F989808185FFF5CFCE010E94FE00C3
:10029000F1CF8B8DFE01E80FF11DE35AFF4FF08285
:1002A0009FB7F8940B8FEA89FB89808180620AC02E
:1002B0009FB7F894EE89FF896083E889F989808186
:1002C0008370806480839FBF81E090E0DF91CF9155
:1002D0001F910F91FF90EF900895CF93DF93EC0162
:1002E000888D8823C9F0EA89FB89808185FD05C056
:1002F000A889B9898C9186FD0FC00FB607FCF5CF90
:10030000808185FFF2CFA889B9898C9185FFEDCFD7
:10031000CE010E94FE00E7CFDF91CF91089580E0EB
:1003200090E0892B29F00E94F40081110C940000C8
:10033000089520910A0230910B022817390771F4B1
:100340009091080280910902981741F0E09108020B
:10035000F0E0E853FE4F808190E008958FEF9FEF2B
:10036000089508951F93CF93DF93DC015C968D91E0
:100370009C915D97009739F421E030E013963C930F
:100380002E9312973BC05196ED91FC915297509647
:100390002C915097322F30951FB75E964C915E97F7
:1003A000742F727041FD6095F8944081772311F0AD
:1003B000422B01C043234083EC012197F1F748E031
:1003C000508160FF02C0522B01C053235083EC01C7
:1003D0002197F1F76695415099F78081772319F0BD
:1003E0008323808302C0282B20831FBF5C968D91BE
:1003F0009C915D970197F1F781E090E0DF91CF91BB
:100400001F91089520910A0230910B022817390795
:1004100071F4809109022091080290E0805C9F4F66
:10042000821B910960E470E00E94990C089580E0BD
:1004300090E0089520910A0230910B0228173907A5
:10044000B9F49091080280910902981789F0E0911F
:100450000802F0E0E853FE4F80812091080230E06E
:100460002F5F3F4F2F7333272093080290E00895AA
:100470008FEF9FEF0895089580E090E008950E9427
:10048000D00E0F931F93CF93DF93EC018881998156
:10049000009729F02A813B812617370788F48B01C2
:1004A0006F5F7F4F0E940A0E009761F099838883E7
:1004B0001B830A832C813D81232B11F4FC011082C4
:1004C00081E001C080E0DF91CF911F910F910895ED
:1004D000CF93DF93EC0188819981009711F00E94FE
:1004E000810D198218821D821C821B821A82DF9163
:1004F000CF91089585E00E945705019731F486E079
:100500000E9457058130910511F080E090E0089538
:1005100083E00E945705019731F484E00E9457055B
:100520008130910511F080E090E0089581E00E9413
:100530005705019731F482E00E94570581309105FB
:1005400011F080E090E00895CF93DF9387E00E9460
:100550005705EC01019729F488E00E945705892B83
:1005600059F087E00E945705EC01892B39F488E0A7
:100570000E945705019711F4CE011BC087E00E942D
:100580005705892B29F488E00E945705892B59F0DB
:1005900087E00E945705019729F488E00E945705DB
:1005A000019721F006C0CFEFDFEFE6CFCEEFDFEF10
:1005B000E3CFDF91CF910895EF92FF920F931F93B6
:1005C000CF93DF93EC017B018A01BA010E944102C3
:1005D000811104C0CE010E94680207C01D830C83F4
:1005E000B701888199810E94E70ECE01DF91CF91FA
:1005F0001F910F91FF90EF900895CF93DF93EC013F
:100600006115710559F0FB0101900020E9F7319760
:10061000AF01461B570B0E94DC0202C00E94680219
:10062000CE01DF91CF910895CF92DF92EF92FF92AA
:100630000F931F93CF93DF93CDB7DEB76E970FB6AF
:10064000F894DEBF0FBECDBF81E192E00E94E800CA
:10065000181619060CF070C081E192E00E94C600E5
:100660008C011A8E198E1C8E1B8E1E8E1D8E47E0DD
:1006700050E06AE271E0CE0149960E94DC021C8AD9
:100680001B8A1E8A1D8A188E1F8A4AE0BE016F5F70
:100690007F4FC8010E942D0CBE016F5F7F4FCE01BE
:1006A00043960E94FD021A8219821C821B821E82BE
:1006B0001D82698D7A8D6115710531F04D8D5E8DCC
:1006C000CE0101960E94DC02EF88F88CCB88DC8892
:1006D000C114D104A1F1E114F104B1F08D819E8126
:1006E000E80EF91EB701CE0101960E94410288234F
:1006F00031F129813A818D819E81B601820F931F4C
:100700000E94E70EFE82ED824D815E8169817A81D1
:100710008EEA92E00E948D000E94FF0489819A81F6
:100720000E94810D8B899C890E94810D898D9A8DF3
:100730000E94810DC80108C08FEF9FEF05C0CE0158
:1007400001960E946802E0CF6E960FB6F894DEBF65
:100750000FBECDBFDF91CF911F910F91FF90EF9012
:10076000DF90CF9008951F920F920FB60F92112431
:100770002F933F934F935F936F937F938F939F93A9
:10078000AF93BF93EF93FF9381E192E00E94FE004D
:10079000FF91EF91BF91AF919F918F917F916F9159
:1007A0005F914F913F912F910F900FBE0F901F902F
:1007B00018951F920F920FB60F9211242F938F93BB
:1007C0009F93EF93FF93E0912102F09122028081A9
:1007D000E0912702F091280282FD12C09081809161
:1007E0002A028F5F8F7320912B02821751F0E091C4
:1007F0002A02F0E0EF5EFD4F958F80932A0201C040
:100800008081FF91EF919F918F912F910F900FBE5B
:100810000F901F9018951F920F920FB60F921124F0
:100820002F933F934F935F936F937F938F939F93F8
:10083000AF93BF93EF93FF93E0910A02F0910B0205
:10084000309709F451C0968DA685B785858591FFAF
:1008500004C09C91892329F447C09C91892309F005
:1008600043C0A389B4899C918589809589238C9301
:10087000868997890197F1F7608D718DA685B78577
:10088000558538E020E0CB010197F1F7822F90E009
:1008900095958795282F4C91452309F02068315074
:1008A00091F7868D81FD20958091090290E0019657
:1008B0008F73992730910802381749F0A0910902E7
:1008C000B0E0A853BE4F2C938093090203C0868DDD
:1008D0008160868F828D938D0197F1F7A389B4890A
:1008E0009C918589892B8C93FF91EF91BF91AF915A
:1008F0009F918F917F916F915F914F913F912F9138
:100900000F900FBE0F901F901895833081F028F440
:10091000813099F08230A1F008958730A9F08830B5
:10092000B9F08430D1F4809180008F7D03C0809134
:1009300080008F7780938000089584B58F7702C000
:1009400084B58F7D84BD08958091B0008F7703C0FA
:100950008091B0008F7D8093B00008958F929F9218
:10096000AF92BF920F931F93CF93DF93CDB7DEB7B4
:10097000A1970FB6F894DEBF0FBECDBF19A24230CB
:1009800008F44AE08E010F5D1F4F842E912CA12C9C
:10099000B12CA50194010E94AD0CE62FB901CA014A
:1009A00001501109EA3014F4E05D01C0E95CD8019E
:1009B000EC93232B242B252B61F70115110571F0E6
:1009C000F80101900020E9F73197AF01401B510B6E
:1009D000B8018EEA92E00E948D0002C080E090E0B3
:1009E000A1960FB6F894DEBF0FBECDBFDF91CF91B9
:1009F0001F910F91BF90AF909F908F90089542E00C
:100A000050E065EC71E08EEA92E00C948D00FC0100
:100A10008091D1029091D202892B21F421E030976C
:100A200049F413C08091CD029091CE02309731F4F9
:100A300021E0FC018081882341F006C0BF010E94B3
:100A4000DE0E21E0892B09F020E0822F0895CF925D
:100A5000DF92EF92FF92CF93DF936C01990FEE0834
:100A6000FF08F7FE13C06DE28EEA92E00E94B20129
:100A7000EC0166277727CB016C197D098E099F0948
:100A80004AE00E94AE04C80FD91F06C04AE0C70161
:100A9000B6010E94AE04EC010E94FF048C0F9D1F62
:100AA000DF91CF91FF90EF90DF90CF900895CF939B
:100AB000DF93282F30E0F901EE58FF4F8491F901C0
:100AC000E255FF4FD491F901E656FF4FC491CC2374
:100AD00091F081110E948504EC2FF0E0EE0FFF1FD2
:100AE000EA57FF4FA591B491EC91ED2381E090E09E
:100AF00021F480E002C080E090E0DF91CF91089582
:100B00001F93CF93DF93282F30E0F901EE58FF4F6A
:100B10008491F901E255FF4FD491F901E656FF4F58
:100B2000C491CC23C1F0162F81110E948504EC2FB3
:100B3000F0E0EE0FFF1FE057FF4FA591B4919FB774
:100B4000F894111104C08C91D095D82302C0EC9177
:100B5000DE2BDC939FBFDF91CF911F910895CF9340
:100B6000DF9390E0FC01E255FF4F2491FC01E65633
:100B7000FF4F8491882361F190E0880F991FFC0159
:100B8000E859FF4FC591D491FC01E057FF4FA59163
:100B9000B491611109C09FB7F89488812095822390
:100BA0008883EC912E230BC0623061F49FB7F894D8
:100BB0008881322F309583238883EC912E2B2C93C0
:100BC0009FBF06C08FB7F894E8812E2B28838FBF74
:100BD000DF91CF9108951F920F920FB60F921124BB
:100BE0002F933F938F939F93AF93BF938091D8029E
:100BF0009091D902A091DA02B091DB023091D70234
:100C000023E0230F2D3720F40196A11DB11D05C04F
:100C100026E8230F0296A11DB11D2093D7028093D1
:100C2000D8029093D902A093DA02B093DB028091AC
:100C3000D3029091D402A091D502B091D602019630
:100C4000A11DB11D8093D3029093D402A093D5022D
:100C5000B093D602BF91AF919F918F913F912F9109
:100C60000F900FBE0F901F901895789484B58260F6
:100C700084BD84B5816084BD85B5826085BD85B540
:100C8000816085BD80916E00816080936E001092BE
:100C90008100809181008260809381008091810039
:100CA00081608093810080918000816080938000CA
:100CB0008091B10084608093B1008091B000816028
:100CC0008093B00080917A00846080937A00809154
:100CD0007A00826080937A0080917A0081608093AC
:100CE0007A0080917A00806880937A001092C10027
:100CF000E0912102F091220282E08083E0911D02C6
:100D0000F0911E021082E0911F02F09120028FEC00
:100D1000808310922902E0912502F091260286E05C
:100D20008083E0912302F09124028081806180839E
:100D3000E0912302F0912402808188608083E09119
:100D40002302F0912402808180688083E091230255
:100D5000F091240280818F7D808361E08AE00E948F
:100D6000AF0561E089E00E94AF0561E08BE00E9481
:100D7000AF0561E08CE00E94AF0561E08DE00E946C
:100D8000AF0560E081E00E94AF0560E082E00E9474
:100D9000AF0560E083E00E94AF0560E084E00E9460
:100DA000AF0560E085E00E94AF0560E086E00E944C
:100DB000AF0560E087E00E94AF0560E088E00E9438
:100DC000AF051092C9021092C8021092C702109289
:100DD000C6021092C5021092C4028DE991E0909370
:100DE000CB028093CA029091BA02963108F058C0A3
:100DF0002DEB30E03093C5022093C4022BE931E0A3
:100E00003093C7022093C6022CE231E03093C9022E
:100E10002093C80240916800983058F031E09E302D
:100E200008F430E021E0822F01C0880F3A95EAF7FC
:100E300001C084E0842B80936800983038F09E30A5
:100E400040F0963148F020E030E008C02DE630E078
:100E500005C02BE630E002C02CE630E03093C20241
:100E60002093C102983030F481E001C0880F9A9538
:100E7000EAF70EC0292F30E09E3018F428503109CF
:100E800002C02E50310981E001C0880F2A95EAF78F
:100E90008093C3028091CA029091CB020197F1F72F
:100EA0008091C8029091C902892B49F1E0910A0210
:100EB000F0910B0282E0EE3AF80709F1309739F031
:100EC000A389B4899C918589809589238C9380918D
:100ED000CC028E7F8093CC021092090210920802FD
:100EE0008EEA92E090930B0280930A02E091C10295
:100EF000F091C20290818091C302892B8083C1E06E
:100F000012E00FEF82E391E00E9407058823B1F021
:100F100060E089E00E94800560E08BE00E9480052F
:100F200060E08CE00E94800560E08DE00E9480051A
:100F300069E371E08DEC92E00E94FD0289E391E0AB
:100F40000E940705882339F10E949602019749F40F
:100F50000E948802892B29F40E947A02892B09F4C5
:100F600025C30E949602892B49F40E9488020197AA
:100F700029F40E947A02892B09F41FC30E94960269
:100F8000892B49F40E948802892B29F40E947A0255
:100F9000019709F419C382E491E00E9407058823B0
:100FA000C9F160E08CE00E94800560E08DE00E9465
:100FB000800580911002811111C00E94A402019746
:100FC00019F483E090E006C00E94A402892B21F46A
:100FD00080E090E00E942705C093100210920F025B
:100FE0000E94140380930E02803329F410921002A1
:100FF0006FE471E0F9C2823331F40E94A402892BBC
:1010000009F4E9C207C0833329F40E94A4020197BE
:1010100009F4E6C28FE491E00E9407058823C1F03D
:10102000C0930D0210920C020E94A402019731F4A9
:1010300062E671E08DEC92E00E94FD020E94A40243
:10104000892B31F46BE671E08DEC92E00E94FD0299
:1010500082E691E00E940705882309F455C061E00B
:101060008DE00E94800560E08CE00E948005809108
:10107000100281111AC080910F02823021F485E1A3
:1010800090E00E94270580910F02813021F48BE0CF
:1010900090E00E94270580910F02811104C081E039
:1010A00090E00E942705C09310020E94A402892BA1
:1010B00059F580910D02811111C080910C028111AE
:1010C00017C080910F028111C8C21092100262E411
:1010D00071E08DEC92E00E94FD02BFC2813041F4CC
:1010E000109210026BE671E08DEC92E00E94FD021E
:1010F00080910C02813041F4109210026EE871E090
:101100008DEC92E00E94FD028BE691E00E940705C3
:10111000882309F447C080911002811112C0809188
:101120000F02811104C082E390E00E9427058091A4
:101130000F02813021F483E390E00E942705C093E1
:10114000100260E08CE00E94800560E08DE00E946B
:10115000800561E089E00E94800560E08BE00E94EC
:10116000800580910F0281110EC00E949602892B8A
:10117000C9F40E9488020197A9F40E947A02892B7F
:1011800009F437C20FC0813069F40E949602892B9E
:1011900049F40E948802892B29F40E947A0201975F
:1011A00009F427C286E991E00E940705882391F09F
:1011B00060E089E00E94800560E08BE00E9480058D
:1011C0000E94A402892B31F46EE971E08DEC92E06B
:1011D0000E94FD028EE991E00E940705882309F430
:1011E000AEC061E08CE00E94800560E08DE00E946E
:1011F00080058091100281114FC080910F028230D2
:1012000049F480910C02811113C080910D02882352
:1012100059F00EC0813061F480910C02811108C038
:1012200080910D02813021F486E190E00E94270533
:1012300080910F02813049F480910C02811113C01A
:1012400080910D02882359F00EC08111FDC180915B
:101250000C02811108C080910D02813021F48CE0D4
:1012600090E00E94270580910F02811105C08091B6
:101270000C02882339F00EC0813061F480910C0299
:10128000813041F480910D02811104C082E090E030
:101290000E942705C09310020E94A402019709F042
:1012A0004EC0D0910F02D11105C080910D02813046
:1012B000E1F411C0D13049F480910D02811126C0B2
:1012C00080910C02882339F021C0D230E9F480915A
:1012D0000C02813081F51092100264E771E08DEC10
:1012E00092E00E94FD02D1110DC080910D0281118A
:1012F00026C01092100262E471E08DEC92E00E9430
:10130000FD0208C0D13011F0DF3F99F480910C024A
:10131000813079F3D13069F480910D02813079F414
:101320001092100261E871E08DEC92E00E94FD02E3
:1013300006C0D23021F480910C02882389F384E71F
:1013400091E00E940705882309F451C060E08CE019
:101350000E94800560E08DE00E948005809110026F
:10136000811111C00E94A402019719F48DE090E050
:1013700006C00E94A402892B21F48AE090E00E941A
:101380002705C093100210920D02C0930F020E9415
:101390001403D82F80930E0260E08CE00E94800539
:1013A00060E08DE00E948005D03329F41092100295
:1013B0006FE471E018C0D13329F41092100267EA8B
:1013C00071E011C0D23331F40E94A402892B09F4D8
:1013D00019C10DC0D33309F41AC1D43341F41092AA
:1013E00010026AEB71E08DEC92E00E94FD0281E850
:1013F00091E00E940705882309F44EC080911002F5
:10140000811111C00E94A402019719F487E190E0B4
:1014100006C00E94A402892B21F484E190E00E947E
:101420002705C093100260E08CE00E94800560E018
:101430008DE00E94800510920D0210930F020E9411
:101440001403D82F80930E0260E08CE00E94800588
:1014500060E08DE00E948005D13329F410921002E3
:1014600067EA71E015C0D23331F40E94A402892BDF
:1014700009F4D7C011C0D33329F40E94A402019704
:1014800059F4D4C0D43341F4109210026AEB71E0E5
:101490008DEC92E00E94FD0287EA91E00E94070530
:1014A0008823C1F0C0930C0210920D020E94A40286
:1014B000019731F462E671E08DEC92E00E94FD024A
:1014C0000E94A402892B31F46EE871E08DEC92E069
:1014D0000E94FD028EE891E00E940705882309F42E
:1014E0004CC08091100281111AC080910F0282308D
:1014F00021F48EE390E00E94270580910F02813055
:1015000021F48DE390E00E94270580910F028F3F28
:1015100021F48FEF90E00E942705C093100260E055
:101520008CE00E94800560E08DE00E94800560E014
:1015300089E00E94800561E08BE00E948005809137
:101540000F02823049F40E949602892BB1F40E9466
:101550008802019791F40CC0813011F08F3F69F43B
:101560000E949602019749F40E948802892B29F46F
:101570000E947A02892B09F45EC08AEB91E00E94F6
:101580000705882381F060E08CE00E94800560E020
:101590008DE00E94800500930F0267EA71E08DECF8
:1015A00092E00E94FD020E948F01ACCC62E471E0E7
:1015B0008DEC92E00E94FD02D4CC64E771E08DECEA
:1015C00092E00E94FD02DACC61E871E08DEC92E0DD
:1015D0000E94FD02E0CC109210026EE971E004C09E
:1015E0001092100262E671E08DEC92E00E94FD0222
:1015F00011CD1092100266E971E08DEC92E00E942C
:10160000FD02D0CD109210026EE971E0ECCE0E9486
:10161000A402019709F0EBCE1092100262E671E08D
:10162000E2CE109210026EE971E032CF10921002F9
:1016300062E671E02DCF1092100266E971E08DEC48
:1016400092E00E94FD0299CF823009F023CE809172
:101650000C02813009F007CEF3CD80910F0281306A
:1016600041F41092100264E771E08DEC92E00E9468
:10167000FD0280910F02823009F046CD10921002D7
:1016800061E871E03DCD8CE191E09093AF028093F1
:10169000AE0280910A0290910B028E5A924071F430
:1016A000E091C102F091C20290818091C3028095C5
:1016B0008923808310920B0210920A028091CD023E
:1016C0009091CE020C94810DCF92DF92EF92FF9217
:1016D000109214021092130298EEC92E93E0D92EA4
:1016E000E12CF12CC0921502D0921602E092170262
:1016F000F09218028AE091E0909312028093110216
:1017000085EC90E090931E0280931D0284EC90E0A3
:101710009093200280931F0280EC90E0909322022D
:101720008093210281EC90E0909324028093230225
:1017300082EC90E0909326028093250286EC90E064
:10174000909328028093270210922A0210922B0273
:1017500010922C0210922D021092CE021092CD0205
:101760001092D0021092CF021092D2021092D102A7
:1017700046E050E062E371E08DEC92E00E94DC0212
:101780001092B1021092B002C092B202D092B30293
:10179000E092B402F092B5028CE191E09093AF0236
:1017A0008093AE021092C5021092C4021092C7023A
:1017B0001092C6021092C9021092C8021092CB0277
:1017C0001092CA026091CC026E7F6D7F6093CC0252
:1017D0006695617081E068278AE00E94800561E07B
:1017E0008AE00E94AF05E8EBF0E0E491E093BE02EE
:1017F000E4EAF0E0E491F0E0EE0FFF1FE057FF4F66
:10180000859194919093C0028093BF0260E089E03B
:101810000E94AF058091CC0281FD04C061E089E0A7
:101820000E94800589E08093BA02E7EBF0E0E49142
:10183000E093BB02E3EAF0E0E491F0E0EE0FFF1F7B
:10184000EA57FF4F859194919093BD028093BC021B
:10185000FF90EF90DF90CF900895BB274A3031F48E
:10186000992322F4BDE2909581959F4F0C94390CF9
:10187000BB27FB015527AA27880F991FAA1FA4176A
:1018800010F0A41B83955051B9F7A05DAA3308F05E
:10189000A95DA193009779F7B111B1931192CB0192
:1018A0000C94520CDC01FC01672F71917723E1F756
:1018B000329704C07C916D9370836291AE17BF071D
:1018C000C8F308952F923F924F925F926F927F924A
:1018D0008F929F92AF92BF92CF92DF92EF92FF9240
:1018E0000F931F93CF93DF93CDB7DEB7CA1BDB0BEC
:1018F0000FB6F894DEBF0FBECDBF09942A88398891
:1019000048885F846E847D848C849B84AA84B98497
:10191000C884DF80EE80FD800C811B81AA81B981A3
:10192000CE0FD11D0FB6F894DEBF0FBECDBFED01B7
:10193000089597FB072E16F4009407D077FD09D081
:101940000E94CF0C07FC05D03EF4909581959F4FE7
:101950000895709561957F4F0895A1E21A2EAA1BF4
:10196000BB1BFD010DC0AA1FBB1FEE1FFF1FA2174F
:10197000B307E407F50720F0A21BB30BE40BF50B4C
:10198000661F771F881F991F1A9469F760957095D5
:10199000809590959B01AC01BD01CF010895AA1BD4
:1019A000BB1B51E107C0AA1FBB1FA617B70710F04A
:1019B000A61BB70B881F991F5A95A9F7809590957C
:1019C000BC01CD010895EE0FFF1F0590F491E02DAD
:1019D00009940F931F93CF93DF938230910510F4F6
:1019E00082E090E0E091DE02F091DF0220E030E062
:1019F000A0E0B0E0309719F140815181028113815C
:101A000048175907C8F08417950769F4109731F003
:101A100012960C93129713961C9327C00093DE0224
:101A20001093DF0222C02115310519F04217530728
:101A300018F49A01BD01EF01DF01F801DBCF211598
:101A40003105F9F0281B390B2430310580F48A81E7
:101A50009B816115710521F0FB019383828304C092
:101A60009093DF028093DE02FE01329644C0FE01B5
:101A7000E20FF31F81939193225031093983288318
:101A80003AC02091DC023091DD02232B41F42091F9
:101A90000201309103013093DD022093DC0220919A
:101AA0000001309101012115310541F42DB73EB7F8
:101AB0004091040150910501241B350BE091DC029B
:101AC000F091DD02E217F307A0F42E1B3F0B28175D
:101AD000390778F0AC014E5F5F4F2417350748F0A7
:101AE0004E0F5F1F5093DD024093DC028193919370
:101AF00002C0E0E0F0E0CF01DF91CF911F910F91A4
:101B00000895CF93DF93009709F481C0FC013297C9
:101B100013821282A091DE02B091DF02109781F44D
:101B200020813181820F931F2091DC023091DD02F0
:101B30002817390751F5F093DD02E093DC0267C006
:101B4000ED0120E030E0CE17DF0740F44A815B81F1
:101B50009E0141155105F1F0EA01F5CFD383C2830F
:101B600040815181840F951FC817D90759F4888186
:101B70009981840F951F0296918380838A819B812E
:101B8000938382832115310529F4F093DF02E093DA
:101B9000DE023DC0E901FB83EA8349915991C40FFC
:101BA000D51FEC17FD0761F480819181840F951F8B
:101BB0000296E90199838883828193819B838A833A
:101BC000E0E0F0E012968D919C911397009719F048
:101BD000FD01DC01F7CF8D919C9111979D012E5F46
:101BE0003F4F820F931F2091DC023091DD022817B6
:101BF000390769F4309729F41092DF021092DE025F
:101C000002C013821282B093DD02A093DC02DF9146
:101C1000CF910895A0E0B0E0E0E1FEE00C94660C06
:101C2000EC01009721F4CB010E94E90CB4C0FC0147
:101C3000E60FF71F9C0122503109E217F30708F461
:101C4000A8C0D9010D911C91119706171707B0F084
:101C50000530110508F49BC0C80104978617970743
:101C600008F495C002501109061B170B019311933C
:101C70006D937C93CF010E94810D89C05B01A01AF6
:101C8000B10A4C01800E911EA091DE02B091DF02DC
:101C9000612C712CE12CF12C109709F446C08D9128
:101CA0009C911197A815B905B1F56C0142E0C40EDD
:101CB000D11CCA14DB0478F14C018A189B0864011A
:101CC00042E0C40ED11C1296BC9012971396AC91B0
:101CD000B5E0CB16D10440F0B282A383918280821A
:101CE000D9016D937C9309C00E5F1F4F800F911F28
:101CF000F90191838083EB2DFA2FE114F10431F087
:101D0000D7011396FC93EE93129741C0F093DF0234
:101D1000E093DE023CC06816790608F43C017D01C0
:101D200012960D90BC91A02DB7CF8091DC029091BE
:101D3000DD0288169906E1F466167706C8F48091EC
:101D4000000190910101009741F48DB79EB7409139
:101D5000040150910501841B950BE817F907C8F49D
:101D6000F093DD02E093DC02F901718360830FC020
:101D7000CB010E94E90C7C01009759F0A801BE013B
:101D80000E94D50ECE010E94810DC70104C0CE0174
:101D900002C080E090E0CDB7DEB7EEE00C94820C9C
:101DA00081E090E0F8940C94EE0EFB01DC0102C09F
:101DB00001900D9241505040D8F70895FB01DC018D
:101DC0008D91019080190110D9F3990B0895FB01B1
:101DD000DC0101900D920020E1F7089510E0C2E6C9
:101DE000D0E004C0FE010E94E30C2196C336D10767
:061DF000C9F7F894FFCFD3
:101DF6000000E00280000000000020018D00B70016
:101E06006D01E800C600DA0000000000B2018D0096
:101E16003C02B10102021A029901436F6D6D616EB7
:101E26006400494E4943494F0053454E53414E4481
:101E36004F005245504F53414E444F2050420043AD
:101E46004F4E4649475552414E444F2053554249FD
:101E5600520043455252414E444F00535542494564
:101E66004E444F005245504F53414E444F2050313F
:101E7600005245504F53414E444F2050320042418C
:101E86004A414E444F00504152414E444F00414258
:101E96005249454E444F00434F4E464947555241DD
:101EA6004E444F2042414A41520052455345544503
:081EB600414E444F000D0A00EB
:00000001FF
