:100000000C9463000C948B000C948B000C943804BB
:100010000C9438040C9438040C948B000C948B00D2
:100020000C948B000C948B000C948B000C948B0024
:100030000C948B000C948B000C948B000C948B0014
:100040000C9411060C948B000C9406040C94E003A1
:100050000C948B000C948B000C948B000C948B00F4
:100060000C948B000C948B000000000024002700EF
:100070002A0000000008000201000003040700003D
:1000800000000000000000000000230026002900FE
:1000900000000000250028002B00040404040404D0
:1000A0000404020202020202030303030303010227
:1000B00004081020408001020408102001020408F6
:1000C0001020680B470B11241FBECFEFD8E0DEBF16
:1000D000CDBF22E0A8ECB1E001C01D92AF3DB20758
:1000E000E1F711E0A0E0B1E0EEEFFDE102C0059024
:1000F0000D92A83CB107D9F710E0C2E6D0E004C0E9
:100100002197FE010E94E70CC136D107C9F70E9472
:100110005B060C94F20E0C940000CF92DF92EF92EB
:10012000FF920F931F93CF93DF936C017A018B01A2
:10013000C0E0D0E0CE15DF0581F0D8016D918D01D2
:10014000D601ED91FC910190F081E02DC601099559
:10015000892B11F02196EECF7E01C701DF91CF915F
:100160001F910F91FF90EF90DF90CF900895FC01C9
:10017000538D448D252F30E0842F90E0821B930B0C
:10018000541710F0CF96089501970895FC01918DB2
:10019000828D981761F0828DDF01A80FB11D5D96E9
:1001A0008C91928D9F5F9F73928F90E008958FEF57
:1001B0009FEF0895FC01918D828D981731F0828D0B
:1001C000E80FF11D858D90E008958FEF9FEF089562
:1001D000FC01918D228D892F90E0805C9F4F821BC6
:1001E00091098F739927089580E192E00E94E800B9
:1001F00021E0892B09F420E0822F0895FC01848DF1
:10020000DF01A80FB11DA35ABF4F2C91848D90E040
:1002100001968F739927848FA689B7892C93A0891B
:10022000B1898C91837080648C93938D848D9813A5
:1002300006C00288F389E02D80818F7D8083089538
:10024000EF92FF920F931F93CF93DF93EC0181E026
:10025000888F9B8D8C8D981305C0E889F9898081E2
:1002600085FD26C0F62E0B8D10E00F5F1F4F0F731C
:100270001127E02E8C8DE8120CC00FB607FCFACFC8
:10028000E889F989808185FFF5CFCE010E94FE00C3
:10029000F1CF8B8DFE01E80FF11DE35AFF4FF08285
:1002A0009FB7F8940B8FEA89FB89808180620AC02E
:1002B0009FB7F894EE89FF896083E889F989808186
:1002C0008370806480839FBF81E090E0DF91CF9155
:1002D0001F910F91FF90EF900895CF93DF93EC0162
:1002E000888D8823C9F0EA89FB89808185FD05C056
:1002F000A889B9898C9186FD0FC00FB607FCF5CF90
:10030000808185FFF2CFA889B9898C9185FFEDCFD7
:10031000CE010E94FE00E7CFDF91CF91089580E0EB
:1003200090E0892B29F00E94F40081110C940000C8
:10033000089520910A0230910B022817390771F4B1
:100340009091080280910902981741F0E09108020B
:10035000F0E0E853FE4F808190E008958FEF9FEF2B
:10036000089508951F93CF93DF93DC015C968D91E0
:100370009C915D97009739F421E030E013963C930F
:100380002E9312973BC05196ED91FC915297509647
:100390002C915097322F30951FB75E964C915E97F7
:1003A000742F727041FD6095F8944081772311F0AD
:1003B000422B01C043234083EC012197F1F748E031
:1003C000508160FF02C0522B01C053235083EC01C7
:1003D0002197F1F76695415099F78081772319F0BD
:1003E0008323808302C0282B20831FBF5C968D91BE
:1003F0009C915D970197F1F781E090E0DF91CF91BB
:100400001F91089520910A0230910B022817390795
:1004100071F4809109022091080290E0805C9F4F66
:10042000821B910960E470E00E949D0C089580E0B9
:1004300090E0089520910A0230910B0228173907A5
:10044000B9F49091080280910902981789F0E0911F
:100450000802F0E0E853FE4F80812091080230E06E
:100460002F5F3F4F2F7333272093080290E00895AA
:100470008FEF9FEF0895089580E090E008950E9427
:10048000D40E0F931F93CF93DF93EC018881998152
:10049000009729F02A813B812617370788F48B01C2
:1004A0006F5F7F4F0E940E0E009761F099838883E3
:1004B0001B830A832C813D81232B11F4FC011082C4
:1004C00081E001C080E0DF91CF911F910F910895ED
:1004D000CF93DF93EC0188819981009711F00E94FE
:1004E000850D198218821D821C821B821A82DF915F
:1004F000CF91089585E00E947D05019731F486E053
:100500000E947D058130910511F080E090E0089512
:1005100083E00E947D05019731F484E00E947D050F
:100520008130910511F080E090E0089581E00E9413
:100530007D05019731F482E00E947D0581309105AF
:1005400011F080E090E00895CF93DF9387E00E9460
:100550007D05EC01019729F488E00E947D05892B37
:1005600059F087E00E947D05EC01892B39F488E081
:100570000E947D05019711F4CE011BC087E00E9407
:100580007D05892B29F488E00E947D05892B59F08F
:1005900087E00E947D05019729F488E00E947D058F
:1005A000019721F006C0CFEFDFEFE6CFCEEFDFEF10
:1005B000E3CFDF91CF910895EF92FF920F931F93B6
:1005C000CF93DF93EC017B018A01BA010E944102C3
:1005D000811104C0CE010E94680207C01D830C83F4
:1005E000B701888199810E94EB0ECE01DF91CF91F6
:1005F0001F910F91FF90EF900895CF93DF93EC013F
:100600006115710559F0FB0101900020E9F7319760
:10061000AF01461B570B0E94DC0202C00E94680219
:10062000CE01DF91CF9108956115710579F0FB013D
:1006300001900020E9F73197AF01461B570BDC0111
:10064000ED91FC910280F381E02D099480E090E02F
:1006500008950F931F93CF93DF93EC010E9414032F
:100660008C016AE271E0CE010E941403800F911F99
:10067000DF91CF911F910F910895CF92DF92EF926A
:10068000FF920F931F93CF93DF93CDB7DEB76E9793
:100690000FB6F894DEBF0FBECDBF80E192E00E949E
:1006A000E800181619060CF074C080E192E00E9470
:1006B000C6008C011A8E198E1C8E1B8E1E8E1D8EEE
:1006C00047E050E06DE271E0CE0149960E94DC0205
:1006D0001C8A1B8A1E8A1D8A188E1F8A4AE0BE0148
:1006E0006F5F7F4FC8010E94310CBE016F5F7F4F6B
:1006F000CE0143960E94FD021A8219821C821B823F
:100700001E821D82698D7A8D6115710531F04D8DC6
:100710005E8DCE0101960E94DC02EF88F88CCB88BA
:10072000DC88C114D104C1F1E114F104B1F08D8170
:100730009E81E80EF91EB701CE0101960E9441028A
:10074000882351F129813A818D819E81B601820FE2
:10075000931F0E94EB0EFE82ED824D815E816981C6
:100760007A818DEA92E00E948D006AE271E08DEA62
:1007700092E00E94140389819A810E94850D8B89E1
:100780009C890E94850D898D9A8D0E94850DC801D6
:1007900008C08FEF9FEF05C0CE0101960E9468024E
:1007A000DCCF6E960FB6F894DEBF0FBECDBFDF91E3
:1007B000CF911F910F91FF90EF90DF90CF90089510
:1007C0001F920F920FB60F9211242F933F934F93C6
:1007D0005F936F937F938F939F93AF93BF93EF93A9
:1007E000FF9380E192E00E94FE00FF91EF91BF91A4
:1007F000AF919F918F917F916F915F914F913F91B9
:100800002F910F900FBE0F901F9018951F920F926F
:100810000FB60F9211242F938F939F93EF93FF9313
:10082000E0912002F09121028081E0912602F09176
:10083000270282FD12C09081809129028F5F8F7301
:1008400020912A02821751F0E0912902F0E0E05F46
:10085000FD4F958F8093290201C08081FF91EF9118
:100860009F918F912F910F900FBE0F901F90189511
:100870001F920F920FB60F9211242F933F934F9315
:100880005F936F937F938F939F93AF93BF93EF93F8
:10089000FF93E0910A02F0910B02309709F451C0E6
:1008A000968DA685B785858591FF04C09C91892387
:1008B00029F447C09C91892309F043C0A389B489D6
:1008C0009C918589809589238C9386899789019746
:1008D000F1F7608D718DA685B785558538E020E0EC
:1008E000CB010197F1F7822F90E095958795282FFE
:1008F0004C91452309F02068315091F7868D81FD98
:1009000020958091090290E001968F73992730918C
:100910000802381749F0A0910902B0E0A853BE4F71
:100920002C938093090203C0868D8160868F828D0F
:10093000938D0197F1F7A389B4899C918589892BBF
:100940008C93FF91EF91BF91AF919F918F917F9188
:100950006F915F914F913F912F910F900FBE0F902C
:100960001F901895833081F028F4813099F08230FF
:10097000A1F008958730A9F08830B9F08430D1F41F
:10098000809180008F7D03C0809180008F7780935D
:100990008000089584B58F7702C084B58F7D84BDB3
:1009A00008958091B0008F7703C08091B0008F7D53
:1009B0008093B0000895FC018091D0029091D10203
:1009C000892B21F421E0309749F413C08091CC02A7
:1009D0009091CD02309731F421E0FC018081882391
:1009E00041F006C0BF010E94E20E21E0892B09F010
:1009F00020E0822F08958F929F92AF92BF92CF9264
:100A0000DF92EF92FF920F931F93CF93DF93CDB7B7
:100A1000DEB7A1970FB6F894DEBF0FBECDBF6C0155
:100A2000990FEE08FF08F7FE2DC06DE28DEA92E007
:100A30000E94B2018C0122273327A9012C193D09FC
:100A40004E095F0919A2CE0181967C019AE0892E98
:100A5000912CA12CB12CCA01B901A50194010E94CD
:100A6000B10C605DF70162937F01211531054105ED
:100A7000510589F7BF018DEA92E00E941403080F27
:100A8000191F20C0A701960119A28E010F5D1F4FEB
:100A90008AE0C82ED12CE12CF12CCA01B901A701A2
:100AA00096010E94B10C605DF80162938F012115DF
:100AB00031054105510589F7BF018DEA92E00E9499
:100AC00014038C016AE271E08DEA92E00E94140343
:100AD000800F911FA1960FB6F894DEBF0FBECDBF59
:100AE000DF91CF911F910F91FF90EF90DF90CF900A
:100AF000BF90AF909F908F900895CF93DF93282F52
:100B000030E0F901EE58FF4F8491F901E255FF4FB3
:100B1000D491F901E656FF4FC491CC2391F0811195
:100B20000E94B204EC2FF0E0EE0FFF1FEA57FF4FD8
:100B3000A591B491EC91ED2381E090E021F480E067
:100B400002C080E090E0DF91CF9108951F93CF9392
:100B5000DF93282F30E0F901EE58FF4F8491F9011F
:100B6000E255FF4FD491F901E656FF4FC491CC23D3
:100B7000C1F0162F81110E94B204EC2FF0E0EE0FAD
:100B8000FF1FE057FF4FA591B4919FB7F894111143
:100B900004C08C91D095D82302C0EC91DE2BDC935D
:100BA0009FBFDF91CF911F910895CF93DF9390E086
:100BB000FC01E255FF4F2491FC01E656FF4F849162
:100BC000882361F190E0880F991FFC01E859FF4FDD
:100BD000C591D491FC01E057FF4FA591B4916111EB
:100BE00009C09FB7F8948881209582238883EC916F
:100BF0002E230BC0623061F49FB7F8948881322FA6
:100C0000309583238883EC912E2B2C939FBF06C0B5
:100C10008FB7F894E8812E2B28838FBFDF91CF9177
:100C200008951F920F920FB60F9211242F933F93A6
:100C30008F939F93AF93BF938091D7029091D802E7
:100C4000A091D902B091DA023091D60223E0230FAD
:100C50002D3720F40196A11DB11D05C026E8230FF4
:100C60000296A11DB11D2093D6028093D7029093C6
:100C7000D802A093D902B093DA028091D202909167
:100C8000D302A091D402B091D5020196A11DB11D4D
:100C90008093D2029093D302A093D402B093D50252
:100CA000BF91AF919F918F913F912F910F900FBE68
:100CB0000F901F901895789484B5826084BD84B598
:100CC000816084BD85B5826085BD85B5816085BD47
:100CD00080916E00816080936E00109281008091FF
:100CE0008100826080938100809181008160809387
:100CF0008100809180008160809380008091B100AC
:100D000084608093B1008091B00081608093B000D6
:100D100080917A00846080937A0080917A0082606A
:100D200080937A0080917A00816080937A0080912C
:100D30007A00806880937A001092C100E0912002CE
:100D4000F091210282E08083E0911C02F0911D026B
:100D50001082E0911E02F0911F028FEC80831092AE
:100D60002802E0912402F091250286E08083E09140
:100D70002202F0912302808180618083E09122022F
:100D8000F0912302808188608083E0912202F091BB
:100D90002302808180688083E0912202F091230207
:100DA00080818F7D808361E08AE00E94D50561E0CB
:100DB00089E00E94D50561E08BE00E94D50561E0E5
:100DC0008CE00E94D50561E08DE00E94D50560E0D1
:100DD00081E00E94D50560E082E00E94D50560E0D8
:100DE00083E00E94D50560E084E00E94D50560E0C4
:100DF00085E00E94D50560E086E00E94D50560E0B0
:100E000087E00E94D50560E088E00E94D505109239
:100E1000C8021092C7021092C6021092C502109228
:100E2000C4021092C3028DE991E09093CA028093AC
:100E3000C9029091B902963108F058C02DEB30E00C
:100E40003093C4022093C3022BE931E03093C602F1
:100E50002093C5022CE231E03093C8022093C702F0
:100E600040916800983058F031E09E3008F430E04E
:100E700021E0822F01C0880F3A95EAF701C084E093
:100E8000842B80936800983038F09E3040F0963183
:100E900048F020E030E008C02DE630E005C02BE649
:100EA00030E002C02CE630E03093C1022093C00253
:100EB000983030F481E001C0880F9A95EAF70EC0AF
:100EC000292F30E09E3018F42850310902C02E50EE
:100ED000310981E001C0880F2A95EAF78093C202A8
:100EE0008091C9029091CA020197F1F78091C702DF
:100EF0009091C802892B49F1E0910A02F0910B020E
:100F000082E0ED3AF80709F1309739F0A389B48906
:100F10009C918589809589238C938091CB028E7FCB
:100F20008093CB0210920902109208028DEA92E09F
:100F300090930B0280930A02E091C002F091C102EB
:100F400090818091C202892B8083D1E012E00FEF63
:100F500085E391E00E94DB048823B1F060E089E042
:100F60000E94A60560E08BE00E94A60560E08CE090
:100F70000E94A60560E08DE00E94A6056CE371E08A
:100F80008CEC92E00E94FD028CE391E00E94DB0475
:100F9000882339F10E949602019749F40E94880241
:100FA000892B29F40E947A02892B09F425C30E9417
:100FB0009602892B49F40E948802019729F40E9425
:100FC0007A02892B09F41FC30E949602892B49F4E7
:100FD0000E948802892B29F40E947A02019709F461
:100FE00019C385E491E00E94DB048823E9F160E005
:100FF0008CE00E94A60560E08DE00E94A6050E949C
:10100000A402019719F483E090E006C00E94A402B4
:10101000892B21F480E090E00E94FB0410920F02E3
:101020000E943D0380930E02803319F462E571E063
:101030000EC0823381F40E94A402892BA9F465E6D4
:1010400071E08DEA92E00E94290365E671E08CEC84
:1010500092E00E94FD0280910E02833329F40E94E7
:10106000A402019709F4DDC282E591E00E94DB044D
:101070008823C1F0D0930D0210920C020E94A402AA
:10108000019731F46EE671E08CEC92E00E94FD0273
:101090000E94A402892B31F467E771E08CEC92E0A6
:1010A0000E94FD028EE691E00E94DB04882309F491
:1010B00049C061E08DE00E94A60560E08CE00E94DE
:1010C000A60580910F02823021F485E190E00E9414
:1010D000FB0480910F02813021F48BE090E00E94AC
:1010E000FB0480910F02811104C081E090E00E9416
:1010F000FB040E94A402892B29F580910D02811125
:101100000FC080910C02811113C080910F028111D8
:10111000ACC265E471E08CEC92E00E94FD02A5C2D5
:10112000813031F467E771E08CEC92E00E94FD02BF
:1011300080910C02813031F46AE971E08CEC92E02C
:101140000E94FD0287E791E00E94DB04882309F4F6
:1011500041C080910F02811104C082E390E00E949F
:10116000FB0480910F02813021F483E390E00E9420
:10117000FB0460E08CE00E94A60560E08DE00E9428
:10118000A60561E089E00E94A60560E08BE00E9470
:10119000A60580910F0281110EC00E949602892B34
:1011A000C9F40E9488020197A9F40E947A02892B4F
:1011B00009F444C20FC0813069F40E949602892B61
:1011C00049F40E948802892B29F40E947A0201972F
:1011D00009F434C282EA91E00E94DB04882391F092
:1011E00060E089E00E94A60560E08BE00E94A60511
:1011F0000E94A402892B31F465E671E08CEC92E048
:101200000E94FD0285E691E00E94DB04882309F438
:10121000A2C061E08CE00E94A60560E08DE00E9423
:10122000A60580910F02823049F480910C02811151
:1012300013C080910D02882359F00EC0813061F4F3
:1012400080910C02811108C080910D02813021F43F
:1012500086E190E00E94FB0480910F02813049F406
:1012600080910C02811113C080910D02882359F0E6
:101270000EC08111F1C180910C02811108C08091D2
:101280000D02813021F48CE090E00E94FB048091FB
:101290000F02811105C080910C02882339F00EC025
:1012A000813061F480910C02813041F480910D0213
:1012B000811104C082E090E00E94FB040E94A4021D
:1012C000019709F048C0C0910F02C11105C080917B
:1012D0000D028130D1F411C0C13049F480910D026A
:1012E000811122C080910C02882339F01DC0C230C8
:1012F000C9F480910C02813051F560E871E08CEC0A
:1013000092E00E94FD02C1110BC080910D0281117B
:1013100022C065E471E08CEC92E00E94FD0208C0FE
:10132000C13011F0CF3F89F480910C02813089F3F4
:10133000C13059F480910D02813069F46DE871E09B
:101340008CEC92E00E94FD0206C0C23021F4809134
:101350000C02882399F380E891E00E94DB04882343
:1013600009F462C060E08CE00E94A60560E08DE0B8
:101370000E94A6050E94A402019719F48AE090E059
:1013800006C00E94A402892B21F48DE090E00E9407
:10139000FB0410920D02D0930F020E943D03C82F50
:1013A00080930E0260E08CE00E94A60560E08DE074
:1013B0000E94A605C03319F462E571E013C0C13381
:1013C00019F46AEA71E022C0C23381F40E94A402D7
:1013D000892B51F565E671E080E192E00E942903D6
:1013E00065E671E08CEC92E00E94FD0280910E02B5
:1013F000833381F40E94A4020197B1F46EE671E098
:1014000080E192E00E9429036EE671E08CEC92E0AC
:101410000E94FD0280910E02843331F46DEB71E085
:101420008CEC92E00E94FD028DE891E00E94DB04CA
:10143000882309F45DC060E08CE00E94A60560E0AE
:101440008DE00E94A6050E94A402019719F484E190
:1014500090E006C00E94A402892B21F487E190E06D
:101460000E94FB0410920D0210930F020E943D0394
:10147000C82F80930E0260E08CE00E94A60560E019
:101480008DE00E94A605C13319F46AEA71E00EC02E
:10149000C23381F40E94A402892B51F565E671E004
:1014A00080E192E00E94290365E671E08CEC92E015
:1014B0000E94FD0280910E02833381F40E94A402F7
:1014C0000197B1F46EE671E080E192E00E94290399
:1014D0006EE671E08CEC92E00E94FD0280910E02BB
:1014E000843331F46DEB71E08CEC92E00E94FD02EC
:1014F0008AEA91E00E94DB048823C1F0D0930C02B9
:1015000010920D020E94A402019731F46EE671E080
:101510008CEC92E00E94FD020E94A402892B31F41F
:101520006AE971E08CEC92E00E94FD028AE991E0A8
:101530000E94DB04882309F446C080910F028230A8
:1015400021F48EE390E00E94FB0480910F02813031
:1015500021F48DE390E00E94FB0480910F028F3F05
:1015600021F48FEF90E00E94FB0460E08CE00E9489
:10157000A60560E08DE00E94A60560E089E00E947B
:10158000A60561E08BE00E94A60580910F028230E3
:1015900049F40E949602892BB1F40E9488020197B7
:1015A00091F40CC0813011F08F3F69F40E949602D3
:1015B000019749F40E948802892B29F40E947A023B
:1015C000892B09F442C08DEB91E00E94DB04882353
:1015D00081F060E08CE00E94A60560E08DE00E9452
:1015E000A60500930F026AEA71E08CEC92E00E947B
:1015F000FD020E948F01ACCC65E471E08CEC92E0BE
:101600000E94FD02D4CC60E871E08CEC92E00E9474
:10161000FD02DACC6DE871E08CEC92E00E94FD02F4
:10162000E0CC6EE671E08DEA92E00E9429036EE65E
:1016300071E08CEC92E00E94FD0216CD62EA71E04E
:101640008CEC92E00E94FD02C5CD62EA71E08CEC68
:1016500092E00E94FD02B7CF823009F02FCE809138
:101660000C02813009F013CEFFCD80910F02813042
:1016700031F460E871E08CEC92E00E94FD02809110
:101680000F02823009F05ECD6DE871E057CD8CE13C
:1016900091E09093AE028093AD0280910A02909106
:1016A0000B028D5A924071F4E091C002F091C10298
:1016B00090818091C20280958923808310920B02D1
:1016C00010920A028091CC029091CD020C94850D6B
:1016D000CF92DF92EF92FF921092130210921202B9
:1016E00098EEC92E93E0D92EE12CF12CC092140271
:1016F000D0921502E0921602F09217028AE091E071
:10170000909311028093100285EC90E090931D025B
:1017100080931C0284EC90E090931F0280931E0241
:1017200080EC90E0909321028093200281EC90E085
:10173000909323028093220282EC90E09093250202
:101740008093240286EC90E09093270280932602F7
:101750001092290210922A0210922B0210922C024F
:101760001092CD021092CC021092CF021092CE02B3
:101770001092D1021092D00246E050E065E371E091
:101780008CEC92E00E94DC021092B0021092AF0248
:10179000C092B102D092B202E092B302F092B402CF
:1017A0008CE191E09093AE028093AD021092C4025E
:1017B0001092C3021092C6021092C5021092C80283
:1017C0001092C7021092CA021092C9026091CB0215
:1017D0006E7F6D7F6093CB026695617081E06827B4
:1017E0008AE00E94A60561E08AE00E94D505E8EB48
:1017F000F0E0E491E093BD02E4EAF0E0E491F0E08F
:10180000EE0FFF1FE057FF4F859194919093BF0219
:101810008093BE0260E089E00E94D5058091CB02F2
:1018200081FD04C061E089E00E94A60589E0809303
:10183000B902E7EBF0E0E491E093BA02E3EAF0E00A
:10184000E491F0E0EE0FFF1FEA57FF4F859194916E
:101850009093BC028093BB02FF90EF90DF90CF90FB
:101860000895BB274A3031F4992322F4BDE29095C4
:1018700081959F4F0C943D0CBB27FB015527AA2750
:10188000880F991FAA1FA41710F0A41B839550510D
:10189000B9F7A05DAA3308F0A95DA193009779F785
:1018A000B111B1931192CB010C94560CDC01FC01E7
:1018B000672F71917723E1F7329704C07C916D9384
:1018C00070836291AE17BF07C8F308952F923F92BD
:1018D0004F925F926F927F928F929F92AF92BF9240
:1018E000CF92DF92EF92FF920F931F93CF93DF93EC
:1018F000CDB7DEB7CA1BDB0B0FB6F894DEBF0FBE49
:10190000CDBF09942A88398848885F846E847D8495
:101910008C849B84AA84B984C884DF80EE80FD8097
:101920000C811B81AA81B981CE0FD11D0FB6F8940D
:10193000DEBF0FBECDBFED01089597FB072E16F455
:10194000009407D077FD09D00E94D30C07FC05D086
:101950003EF4909581959F4F0895709561957F4FC6
:101960000895A1E21A2EAA1BBB1BFD010DC0AA1FE0
:10197000BB1FEE1FFF1FA217B307E407F50720F0F8
:10198000A21BB30BE40BF50B661F771F881F991F73
:101990001A9469F760957095809590959B01AC01BC
:1019A000BD01CF010895AA1BBB1B51E107C0AA1FAF
:1019B000BB1FA617B70710F0A61BB70B881F991FF0
:1019C0005A95A9F780959095BC01CD010895EE0F29
:1019D000FF1F0590F491E02D09940F931F93CF936F
:1019E000DF938230910510F482E090E0E091DD0217
:1019F000F091DE0220E030E0A0E0B0E0309719F195
:101A0000408151810281138148175907C8F084171A
:101A1000950769F4109731F012960C93129713966C
:101A20001C9327C00093DD021093DE0222C0211513
:101A3000310519F04217530718F49A01BD01EF015F
:101A4000DF01F801DBCF21153105F9F0281B390B37
:101A50002430310580F48A819B816115710521F064
:101A6000FB019383828304C09093DE028093DD02A6
:101A7000FE01329644C0FE01E20FF31F8193919361
:101A800022503109398328833AC02091DB023091FA
:101A9000DC02232B41F420910201309103013093A9
:101AA000DC022093DB02209100013091010121151D
:101AB000310541F42DB73EB7409104015091050125
:101AC000241B350BE091DB02F091DC02E217F307F7
:101AD000A0F42E1B3F0B2817390778F0AC014E5F9E
:101AE0005F4F2417350748F04E0F5F1F5093DC02FD
:101AF0004093DB028193919302C0E0E0F0E0CF01DC
:101B0000DF91CF911F910F910895CF93DF930097AD
:101B100009F481C0FC01329713821282A091DD0288
:101B2000B091DE02109781F420813181820F931FE2
:101B30002091DB023091DC022817390751F5F09330
:101B4000DC02E093DB0267C0ED0120E030E0CE175D
:101B5000DF0740F44A815B819E0141155105F1F098
:101B6000EA01F5CFD383C28340815181840F951F51
:101B7000C817D90759F488819981840F951F029657
:101B8000918380838A819B81938382832115310590
:101B900029F4F093DE02E093DD023DC0E901FB830E
:101BA000EA8349915991C40FD51FEC17FD0761F4E1
:101BB00080819181840F951F0296E9019983888322
:101BC000828193819B838A83E0E0F0E012968D917D
:101BD0009C911397009719F0FD01DC01F7CF8D91CF
:101BE0009C9111979D012E5F3F4F820F931F209173
:101BF000DB023091DC022817390769F4309729F4A9
:101C00001092DE021092DD0202C013821282B093A3
:101C1000DC02A093DB02DF91CF910895A0E0B0E059
:101C2000E4E1FEE00C946A0CEC01009721F4CB0196
:101C30000E94ED0CB4C0FC01E60FF71F9C0122507E
:101C40003109E217F30708F4A8C0D9010D911C91DE
:101C5000119706171707B0F00530110508F49BC05F
:101C6000C80104978617970708F495C00250110918
:101C7000061B170B019311936D937C93CF010E9468
:101C8000850D89C05B01A01AB10A4C01800E911E1E
:101C9000A091DD02B091DE02612C712CE12CF12CBF
:101CA000109709F446C08D919C911197A815B9051C
:101CB000B1F56C0142E0C40ED11CCA14DB0478F10A
:101CC0004C018A189B08640142E0C40ED11C129694
:101CD000BC9012971396AC91B5E0CB16D10440F0AE
:101CE000B282A38391828082D9016D937C9309C0D3
:101CF0000E5F1F4F800F911FF90191838083EB2DA1
:101D0000FA2FE114F10431F0D7011396FC93EE930E
:101D1000129741C0F093DE02E093DD023CC06816EA
:101D2000790608F43C017D0112960D90BC91A02D1E
:101D3000B7CF8091DB029091DC0288169906E1F41E
:101D400066167706C8F48091000190910101009712
:101D500041F48DB79EB74091040150910501841B59
:101D6000950BE817F907C8F4F093DC02E093DB0267
:101D7000F901718360830FC0CB010E94ED0C7C01DF
:101D8000009759F0A801BE010E94D90ECE010E9411
:101D9000850DC70104C0CE0102C080E090E0CDB740
:101DA000DEB7EEE00C94860C81E090E0F8940C94A1
:101DB000F20EFB01DC0102C001900D924150504037
:101DC000D8F70895FB01DC018D9101908019011075
:101DD000D9F3990B0895FB01DC0101900D920020CD
:101DE000E1F7089510E0C2E6D0E004C0FE010E94D1
:0E1DF000E70C2196C336D107C9F7F894FFCF50
:101DFE000000DF0280000000000020018D00B7000F
:101E0E006D01E800C600DA0000000000B2018D008E
:101E1E003C02B10102021A0299010D0A00436F6DD4
:101E2E006D616E6400494E4943494F0053454E5310
:101E3E00414E444F005245504F53414E444F205057
:101E4E004200434F4E4649475552414E444F205350
:101E5E00554249520041425249454E444F00434576
:101E6E005252414E444F0053554249454E444F0045
:101E7E005245504F53414E444F2050310052455021
:101E8E004F53414E444F2050320042414A414E443E
:101E9E004F00504152414E444F00434F4E4649472A
:101EAE005552414E444F2042414A415200524553F1
:081EBE00455445414E444F001C
:00000001FF
